:100000000C9461000C947E000C947E000C947E0095
:100010000C947E000C947E000C947E000C947E0068
:100020000C947E000C947E000C947E000C947E0058
:100030000C947E000C947E000C947E000C947E0048
:100040000C944C030C947E000C947E000C947E0067
:100050000C947E000C947E000C947E000C947E0028
:100060000C947E000C947E0000000000230026000B
:10007000290000000008000201000003040700003E
:1000800000000000000000000000250028002B00F8
:1000900000000000240027002A00040404040404D3
:1000A0000404020202020202030303030303010227
:1000B00004081020408001020408102001020408F6
:1000C000102011241FBECFEFD8E0DEBFCDBF21E04E
:1000D000A6E2B1E001C01D92AC34B207E1F711E035
:1000E000A0E0B1E0E8EFF0E102C005900D92A63289
:1000F000B107D9F70E9496030C947A080C9400007B
:1001000090E0FC01E255FF4F249186569F4FFC0181
:100110008491882399F090E0880F991FFC01E057A3
:10012000FF4FA591B491FC01EA57FF4F859194913F
:100130008FB7F894EC91E22BEC938FBF0895833046
:1001400081F028F4813099F08230A9F00895873049
:10015000A9F08830C9F08430B1F4809180008F7D9F
:1001600003C0809180008F7780938000089584B5CC
:100170008F7784BD089584B58F7DFBCF8091B000CB
:100180008F778093B00008958091B0008F7DF9CF74
:100190001F93CF93DF93282F30E0F901EE58FF4FE4
:1001A0008491F901E255FF4FD491F901E656FF4FD2
:1001B000C491CC23A9F0162F81110E949F00EC2F2F
:1001C000F0E0EE0FFF1FEA57FF4FA591B4918FB7F4
:1001D000F894EC91111108C0D095DE23DC938FBF09
:1001E000DF91CF911F910895DE2BF8CF3FB7F894A0
:1001F0008091310190913201A0913301B09134018D
:1002000026B5A89B05C02F3F19F00196A11DB11D71
:100210003FBFBA2FA92F982F8827BC01CD01620FAD
:10022000711D811D911D42E0660F771F881F991F68
:100230004A95D1F708958F929F92AF92BF92CF9235
:10024000DF92EF92FF924B015C010E94F6006B017E
:100250007C010E94F6006C197D098E099F09683E99
:10026000734081059105A8F321E0821A9108A10845
:10027000B10888EEC80E83E0D81EE11CF11C811481
:100280009104A104B10429F7FF90EF90DF90CF9083
:10029000BF90AF909F908F9008958FE08AB960E0F3
:1002A00082E10E94C80061E083E10C94C800CF9312
:1002B000DF93C82F60E080E10E94C8002C2F30E05F
:1002C000F901EE58FF4F8491F901E255FF4FD491A7
:1002D000F901E656FF4FC491CC2379F081110E94B9
:1002E0009F00EC2FF0E0EE0FFF1FE859FF4FA591A4
:1002F000B491EC91ED23C1E009F4C0E062E070E05C
:1003000080E090E00E941B0161E080E10E94C80053
:100310008C2FDF91CF91089560E081E10E94C800A9
:1003200062E070E080E090E00E941B0161E081E10A
:100330000C94C8001F93CF93DF93182FD62FCFEFC5
:10034000CAB961E082E10E94C80060E083E10E94D6
:10035000C8001BB90E948C01CAB960E082E10E940A
:10036000C80060E083E10E94C8006D2F86E00E9413
:10037000C80061E087E00E94C8000E948C0162E32F
:1003800070E080E090E00E941B0160E087E00E9446
:10039000C8000E948C0162E370E080E090E0DF9191
:1003A000CF911F910C941B0160E081E00E949A01A3
:1003B000E5E3F1E0119281E0E534F807D9F7109216
:1003C00045010895EF92FF920F931F93CF93DF9310
:1003D00000D000D01F92CDB7DEB70E94D40185E0D7
:1003E000E6E0F1E0DE01119601900D928A95E1F7C9
:1003F0008E010F5F1F4F7E0186E0E80EF11C61E069
:10040000F80181918F010E949A010E151F05B9F71D
:100410000F900F900F900F900F90DF91CF911F9141
:100420000F91FF90EF900895CF93DF93C42F611544
:10043000710599F1009789F190932A018093290120
:10044000709328016093270181E0809326018091B9
:10045000290190912A016091270170912801FC01E6
:1004600030E020E026173707DCF4DF0131962F5FFC
:100470003F4FDC91DC13F6CF1C92A901480F591FA6
:1004800050932A0140932901621B730B709328013A
:1004900060932701DF91CF91089510922601D7CF65
:1004A00020912601211109C010922A0110922901E0
:1004B0001092280110922701EDCF90E080E0EACF62
:1004C000CF93DF93FC01D0E0C0E0CF012191222344
:1004D00031F02D3211F42196F8CF2B32B1F30E9476
:1004E0007F05BC01990F880B990B209749F0C0FF3D
:1004F00007C090958095709561957F4F8F4F9F4F66
:10050000DF91CF910895AF92BF92CF92DF92FF9289
:100510000F931F93CF93DF936C015B01F42E6091D7
:10052000450170E085E391E00E941402EC0180E057
:10053000209739F0FE018191882381F08F3259F4A0
:1005400082E0DF91CF911F910F91FF90DF90CF90CC
:10055000BF90AF9008958A3271F7F2CF4F2D70E0BF
:1005600060E090E080E00E9414028C01FC01892B85
:1005700039F38191882329F08F3211F38A32C9F738
:10058000DFCF4F2D70E060E090E080E00E94140229
:10059000892BB1F6CE010E946002F601608371835F
:1005A00082839383C8010E946002F5016083718396
:1005B0008283938381E0C5CFCF92DF92EF92FF9247
:1005C0000F931F93CF93DF93CDB7DEB7A2970FB6EC
:1005D000F894DEBF0FBECDBF2AE0AE014F5F5F4F84
:1005E0006A010E949D05F60101900020E9F731970C
:1005F0008F010C191D09B8016F5F7F4F90E080E0FB
:100600000E94AD077C01009709F1FC011082B60140
:100610000E94730860E080ED801B0E949A01D12C3B
:10062000C12CC016D106A9F0F701EC0DFD1DE11497
:10063000F10421F410922B01EBE2F1E061E0808102
:100640000E949A01FFEFCF1ADF0AEBCF10E000E023
:10065000E1CFE114F10489F0C701A2960FB6F89436
:10066000DEBF0FBECDBFDF91CF911F910F91FF90E5
:10067000EF90DF90CF900C942407A2960FB6F894D9
:10068000DEBF0FBECDBFDF91CF911F910F91FF90C5
:10069000EF90DF90CF9008951F920F920FB60F92B8
:1006A00011242F933F938F939F93AF93BF93809188
:1006B0002D0190912E01A0912F01B0913001309128
:1006C0002C0123E0230F2D3758F50196A11DB11DF4
:1006D00020932C0180932D0190932E01A0932F0144
:1006E000B09330018091310190913201A09133019A
:1006F000B09134010196A11DB11D809331019093F9
:100700003201A0933301B0933401BF91AF919F9117
:100710008F913F912F910F900FBE0F901F901895C2
:1007200026E8230F0296A11DB11DD2CFCF93DF93F0
:10073000CDB7DEB728970FB6F894DEBF0FBECDBF9A
:10074000789484B5826084BD84B5816084BD85B5AC
:10075000826085BD85B5816085BD80916E008160B8
:1007600080936E001092810080918100826080935E
:100770008100809181008160809381008091800060
:100780008160809380008091B10084608093B1008B
:100790008091B00081608093B00080917A00846085
:1007A00080937A0080917A00826080937A008091B1
:1007B0007A00816080937A0080917A0080688093CB
:1007C0007A001092C1001FEF1AB982E10E948000E6
:1007D00083E10E94800080E10E94800081E10E940C
:1007E000800061E080E10E94C80061E081E10E9438
:1007F000C80061E082E10E94C80061E083E10E94DC
:10080000C80088E88BB90E948C0160E08CE00E94EF
:100810009A0160E088E30E949A0160E080E80E940B
:100820009A010E944D011AB91BB90E948C0185E4FE
:1008300091E0E5E3F1E011928E179F07E1F700E008
:10084000E02E00E0F02E0E944D011FE1A12E11E0EC
:10085000B12E10E000E0F50151905F0160E0852DC0
:100860000E94C8000E948C01BBE16B2EB1E07B2E80
:10087000D12CC12CF30141903F01842D0E945701DE
:1008800081111EC0842D0E9457018823D9F361E095
:10089000852D0E94C8000E948C01F801EE0FFF1FF9
:1008A000EE0FFF1FE55FFE4FEC0DFD1D0081009375
:1008B0004701033699F10D33B9F481E090E030C07F
:1008C000FFEFCF1ADF0A24E0C216D10499F661E0E7
:1008D000852D0E94C8000E948C010F5F1F4F0430BD
:1008E000110509F0B8CFB1CF80914601882321F0DE
:1008F0000E94D40110924601109145011031C0F4BC
:1009000061E0802F0E949A0181E0810F8093450170
:10091000E12FF0E0EB5CFE4F00830AC090E080E046
:100920008D5D9E4FFC018081833649F40E94D40185
:10093000E114F10409F487CF0E94000084CF81E024
:1009400080934601ADB6BEB60091450110E0F801B6
:10095000EC5CFE4F8081982F9D7F9D3251F18A5231
:10096000823038F1809135018F3219F18A3209F1E4
:100970001D821E821F82188619821A821B821C8287
:100980004AE2BE016F5F7F4FCE0105960E9483024F
:1009900090E081309105A9F42D813E814F815885E9
:1009A00069817A818B819C810E9437060E94DC02DA
:1009B00002C00E94E2010FB6F894BEBE0FBEADBEEB
:1009C000B7CF0297B1F34FE2BE016F5F7F4FCE0109
:1009D00005960E94830290E08130910591F429816F
:1009E0003A814B815C81211531054105510509F39F
:1009F0006D817E818F8198850E944706CA01B90169
:100A0000D5CF0297B1F22DB73EB7201B310B0FB6F1
:100A1000F8943EBF0FBE2DBF8DB79EB70196EDB7C0
:100A2000FEB7E01BF10B0FB6F894FEBF0FBEEDBF93
:100A30002DB73EB72F5F3F4F6901DC01FC019F01DD
:100A4000281B390B2017310764F026019601A901F4
:100A50004C195D094017510734F4F90111929F01B7
:100A6000F6CF1192ECCF65E371E030E020E050E08A
:100A700020173107C4F5FB014191BF01742EE894A2
:100A800071F8FDE27F1661F0E6ED7E2E740EE1E076
:100A9000E71530F44C9351E02F5F3F4F1196E8CFAC
:100AA0005523D9F0D901AB5CBE4F20E0BD016553A1
:100AB000714060177107BCF43D91432F4D7F4D325B
:100AC00021F046ED430F423050F4211172CFF20174
:100AD0003083FFEF4F1A5F0AE9CF4C93DDCFF2016D
:100AE0003083252FF6CF0E9460022B013C01C60106
:100AF0000E946002640D751D861D971D57CFFC0175
:100B000088279927E89421912032E9F3293010F0C1
:100B10002E30C8F32B3241F02D3239F4689404C0E2
:100B20000E94AC05820F911D219120532A30C0F301
:100B30001EF4909581959F4F0895BB272A3051F45C
:100B4000992342F4BDE290958095709561957F4F11
:100B50008F4F9F4F0C94B5057AE0979F902D879FFC
:100B6000802D910D11240895BB27FA01A62F62173D
:100B7000710581059105330B30FB66F0AA27660FDE
:100B8000771F881F991FAA1FA21710F0A21B639539
:100B90003850A9F7A05DAA3308F0A95DA19336F7F4
:100BA000B111B1931082CA010C94D605DC01FC018D
:100BB000672F71917723E1F7329704C07C916D9391
:100BC00070836291AE17BF07C8F308950E9428068C
:100BD000A59F900DB49F900DA49F800D911D112491
:100BE00008952F923F924F925F926F927F928F92D1
:100BF0009F92AF92BF92CF92DF92EF92FF920F93AC
:100C00001F93CF93DF93CDB7DEB7CA1BDB0B0FB6B5
:100C1000F894DEBF0FBECDBF09942A883988488872
:100C20005F846E847D848C849B84AA84B984C88408
:100C3000DF80EE80FD800C811B81AA81B981CE0FFF
:100C4000D11D0FB6F894DEBF0FBECDBFED010895E4
:100C5000A29FB001B39FC001A39F700D811D1124FD
:100C6000911DB29F700D811D1124911D0895DB010E
:100C70008F939F930E94E605BF91AF91A29F800D35
:100C8000911DA39F900DB29F900D11240895052EE4
:100C900097FB1EF400940E945E0657FD07D00E9449
:100CA000660607FC03D04EF40C945E065095409502
:100CB000309521953F4F4F4F5F4F08959095809508
:100CC000709561957F4F8F4F9F4F0895A1E21A2E27
:100CD000AA1BBB1BFD010DC0AA1FBB1FEE1FFF1FE0
:100CE000A217B307E407F50720F0A21BB30BE40B30
:100CF000F50B661F771F881F991F1A9469F7609577
:100D00007095809590959B01AC01BD01CF01089530
:100D10000F931F93CF93DF938230910510F482E0FD
:100D200090E0E0914A01F0914B0130E020E0B0E02A
:100D3000A0E0309799F42115310509F44AC0281B29
:100D4000390B24303105D8F58A819B8161157105F5
:100D500089F1FB0193838283FE0111C0408151819F
:100D60000281138148175907E0F04817590799F491
:100D7000109761F012960C93129713961C9332966B
:100D8000CF01DF91CF911F910F91089500934A01F8
:100D900010934B01F4CF2115310551F04217530741
:100DA00038F0A901DB019A01BD01DF01F801C1CFD3
:100DB000EF01F9CF90934B0180934A01CDCFFE0113
:100DC000E20FF31F819391932250310939832883D5
:100DD000D7CF2091480130914901232B41F4209134
:100DE0000201309103013093490120934801209181
:100DF0000001309101012115310541F42DB73EB7B5
:100E00004091040150910501241B350BE0914801EC
:100E1000F0914901E217F307A0F42E1B3F0B2817AE
:100E2000390778F0AC014E5F5F4F2417350748F063
:100E30004E0F5F1F50934901409348018193919356
:100E40009FCFF0E0E0E09CCFCF93DF930097E9F0F5
:100E5000FC01329713821282A0914A01B0914B019A
:100E6000ED0130E020E01097A1F420813181820F64
:100E7000931F20914801309149012817390709F043
:100E800061C0F0934901E0934801DF91CF9108954B
:100E9000EA01CE17DF07E8F54A815B819E01411523
:100EA0005105B1F7E901FB83EA8349915991C40FD8
:100EB000D51FEC17FD0761F4808191810296840FA4
:100EC000951FE90199838883828193819B838A831B
:100ED000F0E0E0E012968D919C9113970097B9F5A0
:100EE0002D913C911197CD010296820F931F209175
:100EF0004801309149012817390739F6309751F5E3
:100F000010924B0110924A01B0934901A0934801FD
:100F1000BCCFD383C28340815181840F951FC817F2
:100F2000D90761F44E5F5F4F88819981480F591F3F
:100F3000518340838A819B8193838283211531056C
:100F400009F0B0CFF0934B01E0934A019ECFFD0131
:100F5000DC01C0CF13821282D7CFB0E0A0E0E3EB78
:100F6000F7E00C94F3058C01009751F4CB010E943B
:100F700088068C01C801CDB7DEB7E0E10C940F06FE
:100F8000FC01E60FF71F9C0122503109E217F3071D
:100F900008F49DC0D901CD91DC911197C617D707F0
:100FA00098F0C530D10530F3CE0104978617970726
:100FB00008F3C61BD70B2297C193D1936D937C93F3
:100FC000CF010E942407D6CF5B01AC1ABD0A4C01A9
:100FD0008C0E9D1EA0914A01B0914B01512C412CC9
:100FE000F12CE12C109731F5809148019091490145
:100FF0008815990509F05CC04616570608F058C0D8
:101000008091000190910101009741F48DB79EB746
:101010004091040150910501841B950BE817F907D5
:1010200008F055C0F0934901E0934801F90171833C
:101030006083A0CF8D919C91119712966C9012971E
:1010400013967C901397A815B90559F56C0142E0E9
:10105000C40ED11CCA14DB0420F1AC014A195B098F
:10106000DA011296159780F0628273825183408371
:10107000D9016D937C93E114F10471F0D7011396BB
:10108000FC93EE93129776CF22968C0F9D1FF90159
:1010900091838083F301EFCFF0934B01E0934A01FA
:1010A00069CF4816590608F42C017D01D3019ACF67
:1010B000CB010E9488067C01009749F0AE01B8017F
:1010C0000E946A08C8010E942407870153CF10E0DC
:1010D00000E050CFFB01DC0102C001900D924150B5
:1010E0005040D8F70895FB01DC0101900D920020DB
:0810F000E1F70895F894FFCF29
:1010F80000004C0180004552524F523738392F3486
:1011080035362A3132332D63303D2B04050607006E
:06111800010203633D002B
:00000001FF
